:100000000C943E000C9450000C9450000C94500042
:100010000C9450000C9450000C9450000C94500020
:100020000C9450000C9450000C9450000C94500010
:100030000C9450000C9450000C9450000C94500000
:100040000C9450000C9450000C9450000C945000F0
:100050000C9450000C9450000C9450000C945000E0
:100060000C9450000C9450000C9450000C945000D0
:100070000C9450000C9450000C94500011241FBE9E
:10008000CFEFD0E1DEBFCDBF11E0A0E0B1E001C015
:100090001D92A430B107E1F70E9407010C944C01B6
:1000A0000C9400003D9A579A3F9A3E9A229A239ABE
:1000B000209A219A0D9A3E9A0895882319F015984E
:1000C0005E980895159A5E9A0895823030F18430D2
:1000D00048F08130B1F08130A0F18230C1F083303E
:1000E00051F10895623001F16F3FF1F06E3FA9F1D7
:1000F000613099F1E82FF0E0E050FF4F108281303D
:1001000051F780910101813031F128980895809153
:1001100002018130E1F02A9808959FEF960F923006
:10012000E0F06E5F623030F7E82FF0E0E050FF4F14
:100130009FEF9083CECF809103018130A9F0459845
:10014000089580910001813021F0479808952A9AFE
:100150000895479A0895289A0895E82FF0E0E0500E
:10016000FF4F91E09083B5CF459A089532E068E063
:1001700052E040E481E09FEF980FE92FF0E0E0507B
:10018000FF4F2081222349F09230B1F0933049F0A3
:10019000913069F098B1942798B9843029F08F5F35
:1001A000EACF8BB180588BB9315021F7089595B1C2
:1001B000952795B98F5FDFCF95B1962795B98F5F5A
:1001C000DACF83E081B981E082B90895119AE7E13D
:1001D000F1E03197F1F700C00000119898E020B1EC
:1001E00022FB222720F9880F822BE7E1F1E03197EB
:1001F000F1F700C00000109AE7E1F1E03197F1F764
:1002000000C000001098915051F7809508950E9409
:10021000E1000E9452000E94E60081FD1FC080FDA7
:1002200027C087FD33C086FF1FC06EEF80E00E94AD
:1002300065006EEF81E00E9465006EEF82E00E9433
:1002400065006EEF83E00E94650081E00E945D0022
:100250000E94B6000E94E60081FFE1CF62E080E0EC
:100260000E94650062E0E6CF80E00E945D00D3CF8F
:100270006EEF80E00E9465006EEF81E00E946500F5
:1002800062E082E00E94650062E0DCCF62E080E034
:0C0290000E94650062E0F1CFF894FFCFFF
:00000001FF
