:100000000C943E000C9450000C9450000C94500042
:100010000C9450000C9450000C9450000C94500020
:100020000C9450000C9450000C9450000C94500010
:100030000C9450000C9450000C9450000C94500000
:100040000C9450000C9450000C9450000C945000F0
:100050000C9450000C9450000C9450000C945000E0
:100060000C9450000C9450000C9450000C945000D0
:100070000C9450000C9450000C94500011241FBE9E
:10008000CFEFD0E1DEBFCDBF11E0A0E0B1E001C015
:100090001D92A430B107E1F70E9452000C94610157
:1000A0000C940000CF93DF930E943C010E94B300A8
:1000B00080E062E00E94C00081E062E00E94C00037
:1000C00082E062E00E94C00083E062E00E94C00023
:1000D000C0EADFE015C080E062E00E94C00081E07D
:1000E00062E00E94C00082E06EEF0E94C00083E0E8
:1000F0006EEF0E94C0000E941101CE010197F1F73E
:100100000E94410187FD2CC00E94410181FDE3CF87
:100110000E94410180FF13C080E06EEF0E94C0008A
:1001200081E06EEF0E94C00082E062E00E94C000A9
:1001300083E062E00E94C0000E941101DECF80E0F7
:1001400062E00E94C00081E062E00E94C00082E0A4
:1001500062E00E94C00083E062E00E94C000CDCF58
:100160000E941101D1CF3D9A579A3F9A3E9A229A06
:10017000239A209A219A3E9A46980D9A15980895A6
:10018000982F8230A8F4862F81508230D8F06E5F8D
:10019000623090F1E92FF0E0E050FF4F1082913093
:1001A000C9F09130E8F0923071F19330F9F0089590
:1001B0008430A8F7623001F16F3FF1F06E3F11F02B
:1001C000613041F7E92FF0E0E050FF4F81E080839C
:1001D000913039F7809101018130D9F02898089544
:1001E000809100018130C9F0479808958091030102
:1001F0008130A9F045980895E92FF0E0E050FF4FD5
:100200008FEF8083CCCF80910201813021F02A983A
:100210000895289A08952A9A0895479A0895459A24
:10022000089521E052E040E438E0922F9150E92F08
:10023000F0E0E050FF4F8081882369F09130B9F001
:10024000913028F488B1842788B92F5FEECF92309F
:1002500049F0933019F02430C0F308958BB18058E1
:100260008BB9089585B1832785B92F5FDECF85B11E
:10027000852785B92F5FD9CF83E081B981E082B925
:100280000895119A88E191E00197F1F7119830E013
:1002900048E151E080B1220F90E0959587959595C2
:1002A00087958170282BCA010197F1F7109ACA012E
:1002B0000197F1F710983F5F383061F7822F8095F2
:0602C0000895F894FFCF41
:00000001FF
