:100000000C943E000C9450000C9450000C94500042
:100010000C9450000C9450000C9450000C94500020
:100020000C9450000C9450000C9450000C94500010
:100030000C9450000C9450000C9450000C94500000
:100040000C9450000C9450000C9450000C945000F0
:100050000C9450000C9450000C9450000C945000E0
:100060000C9450000C9450000C9450000C945000D0
:100070000C9450000C9450000C94500011241FBE9E
:10008000CFEFD0E1DEBFCDBF11E0A0E0B1E001C015
:100090001D92A430B107E1F70E9452000C946A014E
:1000A0000C9400000F931F930E9445010E94B20020
:1000B0000E944A01082F80E001FD1FC000FD32C0F0
:1000C00080E062E00E94C50081E062E00E94C5001D
:1000D00082E062E00E94C50083E062E00E94C50009
:1000E00007FD3AC006FD34C080E00E94BD000E94BA
:1000F0004A01082F80E001FFE1CF62E00E94C500C5
:1001000081E062E00E94C50082E06EEF0E94C500BF
:1001100083E06EEF0E94C50081E00E94BD000E9456
:100120001601C6CF80E06EEF0E94C50081E06EEF41
:100130000E94C50082E062E00E94C50083E062E0A8
:100140000E94C50081E00E94BD000E941601B0CF50
:1001500081E00E94BD00ACCF81E00E94BD000E9402
:100160001601A6CF3D9A579A3F9A3E9A229A239A11
:10017000209A219A0D9A3E9A0895882319F015988D
:100180005E980895159A5E9A0895982F8230A8F483
:10019000862F81508230D8F06E5F623090F1E92F67
:1001A000F0E0E050FF4F10829130C9F09130E8F05C
:1001B000923071F19330F9F008958430A8F76230ED
:1001C00001F16F3FF1F06E3F11F0613041F7E92F1F
:1001D000F0E0E050FF4F81E08083913039F780916B
:1001E00001018130D9F02898089580910001813073
:1001F000C9F047980895809103018130A9F045988E
:100200000895E92FF0E0E050FF4F8FEF8083CCCFCF
:1002100080910201813021F02A980895289A08954A
:100220002A9A0895479A0895459A089530E062E021
:1002300040E458E021E0922F9150E92FF0E0E050A7
:10024000FF4F8081882369F09130D1F0913028F4FC
:1002500088B1842788B92F5FEECF923061F0933058
:1002600031F02430C0F33F5F323021F708958BB175
:1002700080588BB9F8CF85B1852785B92F5FDBCF43
:1002800085B1862785B92F5FD6CF83E081B981E01C
:1002900082B90895119A88E191E00197F1F71198D8
:1002A00030E048E151E080B1220F90E095958795CC
:1002B000959587958170282BCA010197F1F7109ABF
:1002C000CA010197F1F710983F5F383061F7822F2C
:0802D00080950895F894FFCF1A
:00000001FF
