:100000000C943E000C9450000C9450000C94500042
:100010000C9450000C9450000C9450000C94500020
:100020000C9450000C9450000C9450000C94500010
:100030000C9450000C9450000C9450000C94500000
:100040000C9450000C9450000C9450000C945000F0
:100050000C9450000C9450000C9450000C945000E0
:100060000C9450000C9450000C9450000C945000D0
:100070000C9450000C9450000C94500011241FBE9E
:10008000CFEFD0E1DEBFCDBF11E0A0E0B1E001C015
:100090001D92A430B107E1F70E9405010C94710193
:1000A0000C9400003D9A579A3F9A3E9A229A239ABE
:1000B000209A219A0D9A3E9A0895882319F046981D
:1000C00015980895469A159A0895823030F1843033
:1000D00048F08130B1F08130A0F18230C1F083303E
:1000E00051F10895623001F16F3FF1F06E3FA9F1D7
:1000F000613099F1E82FF0E0E050FF4F108281303D
:1001000051F780910101813031F128980895809153
:1001100002018130E1F02A9808959FEF960F923006
:10012000E0F06E5F623030F7E82FF0E0E050FF4F14
:100130009FEF9083CECF809103018130A9F0459845
:10014000089580910001813021F0479808952A9AFE
:100150000895479A0895289A0895E82FF0E0E0500E
:10016000FF4F91E09083B5CF459A089581E058E024
:1001700042E030E49FEF980FE92FF0E0E050FF4FAE
:100180002081222349F0923061F09330A1F0913028
:1001900069F098B1932798B9843011F08F5FEACF56
:1001A000089595B1952795B98F5FE4CF95B19427C0
:1001B00095B98F5FDFCF8BB180588BB9089583E0FD
:1001C00081B981E082B90895119AE7E1F1E03197B0
:1001D000F1F700C00000119898E020B122FB22271F
:1001E00020F9880F822BE7E1F1E03197F1F700C0A9
:1001F0000000109AE7E1F1E03197F1F700C000004C
:100200001098915051F7809508950E94DF000E9448
:10021000520062E080E00E94650062E081E00E949E
:10022000650062E082E00E94650062E083E00E9477
:10023000650009C081E00E945D008FE99FE00197A1
:10024000F1F700C000000E94E40087FD30C00E946A
:10025000E40086FDEFCF0E94E40081FF16C062E05B
:1002600080E00E94650062E081E00E9465006EEF20
:1002700082E00E9465006EEF83E00E94650081E0ED
:100280000E945D000E94B600D8CF0E94E40080FF6B
:1002900014C06EEF80E00E9465006EEF81E00E9466
:1002A000650062E082E00E94650062E0E5CF81E0E7
:1002B0000E945D000E94B600CACF62E080E00E940A
:1002C000650062E081E00E94650062E082E00E94D9
:1002D000650062E083E00E94650080E00E945D00AE
:0602E000ACCFF894FFCF43
:00000001FF
