:100000000C943E000C9450000C9450000C94500042
:100010000C9450000C9450000C9450000C94500020
:100020000C9450000C9450000C9450000C94500010
:100030000C9450000C9450000C9450000C94500000
:100040000C9450000C9450000C9450000C945000F0
:100050000C9450000C9450000C9450000C945000E0
:100060000C9450000C9450000C9450000C945000D0
:100070000C947C010C9450000C94500011241FBE71
:10008000CFEFD0E1DEBFCDBF11E0A0E0B1E001C015
:100090001D92A430B107E1F70E9452000C94900128
:1000A0000C9400000F931F930E9448010E94B5001A
:1000B0000E946D0178940E944D01082F80E001FD9F
:1000C0001FC000FD32C080E062E00E94C80081E0F5
:1000D00062E00E94C80082E062E00E94C80083E003
:1000E00062E00E94C80007FD3AC006FD34C080E00F
:1000F0000E94C0000E944D01082F80E001FFE1CF67
:1001000062E00E94C80081E062E00E94C80082E0D4
:100110006EEF0E94C80083E06EEF0E94C80081E08D
:100120000E94C0000E941901C6CF80E06EEF0E94BD
:10013000C80081E06EEF0E94C80082E062E00E9489
:10014000C80083E062E00E94C80081E00E94C00015
:100150000E941901B0CF81E00E94C000ACCF81E0C5
:100160000E94C0000E941901A6CF3D9A579A3F9A5B
:100170003E9A229A239A209A219A0D9A3E9A08959D
:10018000882319F015985E980895159A5E9A089537
:10019000982F8230A8F4862F81508230D8F06E5F7D
:1001A000623090F1E92FF0E0E050FF4F1082913083
:1001B000C9F09130E8F0923071F19330F9F0089580
:1001C0008430A8F7623001F16F3FF1F06E3F11F01B
:1001D000613041F7E92FF0E0E050FF4F81E080838C
:1001E000913039F7809101018130D9F02898089534
:1001F000809100018130C9F04798089580910301F2
:100200008130A9F045980895E92FF0E0E050FF4FC4
:100210008FEF8083CCCF80910201813021F02A982A
:100220000895289A08952A9A0895479A0895459A14
:10023000089530E062E040E458E021E0922F9150D0
:10024000E92FF0E0E050FF4F8081882369F0913082
:10025000D1F0913028F488B1842788B92F5FEECF90
:10026000923061F0933031F02430C0F33F5F323090
:1002700021F708958BB180588BB9F8CF85B18527C8
:1002800085B92F5FDBCF85B1862785B92F5FD6CFA4
:1002900083E081B981E082B90895119A88E191E003
:1002A0000197F1F7119830E048E151E080B1220F59
:1002B00090E095958795959587958170282BCA0133
:1002C0000197F1F7109ACA010197F1F710983F5F73
:1002D000383061F7822F80950895E9ECF0E0808155
:1002E0008E69808388E090E09093CD008093CC006D
:1002F00081E68093CE0008951F920F920FB60F9261
:1003000011248F93EF93FF93EEECF0E080818083D4
:10031000FF91EF918F910F900FBE0F901F90189546
:04032000F894FFCF7F
:00000001FF
