:100000000C943E000C9450000C9450000C94500042
:100010000C9450000C9450000C9450000C94500020
:100020000C9450000C9450000C9450000C94500010
:100030000C9450000C9450000C9450000C94500000
:100040000C9450000C9450000C9450000C945000F0
:100050000C9450000C9450000C9450000C945000E0
:100060000C9450000C9450000C9450000C945000D0
:100070000C9450000C9450000C94500011241FBE9E
:10008000CFEFD0E1DEBFCDBF11E0A0E0B1E001C015
:100090001D92A430B107E1F70E9452000C940301B5
:1000A0000C940000CF93DF930E94700080E062E028
:1000B0000E947D0081E062E00E947D0082E062E0BB
:1000C0000E947D0083E062E00E947D00C0EADFE0E4
:1000D00081E090E00E94CE00CE010197F1F7F8CFC9
:1000E0003D9A579A3F9A3E9A229A239A209A219AA9
:1000F0003E9A46980D9A15980895982F8230A8F444
:10010000862F81508230D8F06E5F623090F1E92FF7
:10011000F0E0E050FF4F10829130C9F09130E8F0EC
:10012000923071F19330F9F008958430A8F762307D
:1001300001F16F3FF1F06E3F11F0613041F7E92FAF
:10014000F0E0E050FF4F81E08083913039F78091FB
:1001500001018130D9F047980895809100018130E4
:10016000C9F045980895809103018130A9F028983D
:100170000895E92FF0E0E050FF4F8FEF8083CCCF60
:1001800080910201813021F02A980895479A0895BC
:100190002A9A0895459A0895289A0895AC010097DF
:1001A00089F160E478E092E031E0232F2150E22FE2
:1001B000F0E0E050FF4F8081882369F02130E9F0C2
:1001C000213028F48BB180588BB93F5FEECF2230BD
:1001D00079F0233031F03430C0F34150504021F7F2
:1001E000089585B1892785B941505040E9F6F8CF87
:1001F00085B1872785B93F5FD8CF88B1862788B971
:0A0200003F5FD3CF0895F894FFCFBD
:00000001FF
